001-002-0000123456-0CLI001    Juan Perez                        Cuenta Ahorros Juan               A+00000002500000000+00000000000000000+00000002500000000SN2020-01-152026-03-01001
002-001-0000654321-0CLI002    Pedro Garcia                      Cuenta Ahorros Pedro              A+00000001000000000+00000000000000000+00000001000000000SN2021-03-202026-02-28002
001-003-0000999001-0CLI003    Maria Lopez                       Cuenta Corriente Maria            C+00000000010000000+00000000000000000+00000000010000000SN2022-06-102026-03-01001
